:020000040800F2
:1000000000000220B5270008E9260008EB260008BA
:10001000ED260008EF260008F12600080000000089
:10002000000000000000000000000000F3260008AF
:10003000F526000800000000F7260008F926000851
:1000400005280008052800080528000805280008DC
:1000500005280008052800080528000805280008CC
:1000600005280008052800080528000805280008BC
:1000700005280008052800080528000805280008AC
:10008000052800080528000805280008052800089C
:10009000052800080528000805280008052800088C
:1000A000052800080528000805280008052800087C
:1000B000052800080528000805280008052800086C
:1000C000052800080528000805280008052800085C
:1000D0000528000801270008052800080528000851
:1000E0001127000805280008052800080528000831
:1000F000052800081D270008052800080528000815
:10010000052800080528000805280008052800081B
:10011000052800080528000805280008052800080B
:1001200005280008052800080528000805280008FB
:100130000528000800000000000000000528000855
:1001400005280008052800080528000805280008DB
:1001500005280008052800080528000805280008CB
:1001600005280008052800080528000805280008BB
:1001700005280008052800080528000800000000E0
:10018000000000000528000800000000000000003A
:1001900005280008000000000000000005280008F5
:1001A000000000000000000000000000052800081A
:1001B000052800080528000805280008052800086B
:0401C0000528000806
:1001D00010B5054C237833B9044B13B10448AFF381
:1001E00000800123237010BD70000020000000007B
:1001F0009C30000808B5034B1BB103490348AFF31B
:10020000008008BD00000000740000209C30000841
:1002100053B94AB9002908BF00281CBF4FF0FF316D
:100220004FF0FF3000F072B9ADF1080C6DE904CE6B
:1002300000F006F8DDF804E0DDE9022304B07047C1
:100240002DE9F047089E04468846002B4BD18A4290
:10025000154667D9B2FA82F24AB1C2F1200701FA13
:1002600002F320FA07F7954047EA030894404FEA63
:10027000154E230CB8FBFEF71FFA85FC0EFB178802
:1002800043EA084307FB0CF1994209D9EB1807F13F
:10029000FF3080F01B81994240F21881023F2B44CD
:1002A0005B1AA4B2B3FBFEF00EFB103344EA034426
:1002B00000FB0CFCA44509D92C1900F1FF3380F098
:1002C0000781A44540F2048102382C4440EA0740EB
:1002D000A4EB0C0400271EB1D4400023C6E9004360
:1002E0003946BDE8F0878B4209D9002E00F0EB803B
:1002F0000027C6E9000138463946BDE8F087B3FA61
:1003000083F7002F47D18B4202D3824200F2FA805A
:10031000841A61EB030301209846002EE0D0C6E961
:100320000048DDE702B9FFDEB2FA82F2002A40F0AF
:100330008F80491B4FEA154E1FFA85F80127B1FB44
:10034000FEFC230C0EFB1C1143EA014308FB0CF1DD
:10035000994207D9EB180CF1FF3002D2994200F212
:10036000CD808446591AA3B2B1FBFEF00EFB1014E7
:1003700043EA044408FB00F8A04507D92C1900F112
:10038000FF3302D2A04500F2B6801846A4EB080461
:1003900040EA0C409FE7C7F1200CBB4022FA0CFE5C
:1003A0004EEA030E01FA07F420FA0CF521FA0CF3D9
:1003B0004FEA1E482543B3FBF8F92C0C08FB193310
:1003C0001FFA8EFA44EA034309FB0AF49C4202FA3C
:1003D00007F200FA07F10BD91EEB030309F1FF3016
:1003E00080F087809C4240F28480A9F10209734426
:1003F0001B1BADB2B3FBF8F008FB103345EA034416
:1004000000FB0AFAA24508D91EEB040400F1FF33F1
:100410006BD2A24569D90238744440EA0940A0FB76
:100420000289A4EB0A044C45C2464B4654D351D032
:10043000002E69D0B1EB0A0564EB030404FA0CFC4E
:10044000FD40FC404CEA0505C6E90054002747E79B
:10045000C2F1200320FA03F7954001FA02F021FAD5
:1004600003F34FEA154E3843010CB3FBFEF71FFAB6
:1004700085F80EFB173341EA034107FB08F38B4273
:1004800004FA02F407D9691807F1FF3C2FD28B4216
:100490002DD9023F2944CB1A81B2B3FBFEF00EFBEB
:1004A000103341EA034100FB08F38B4207D9691876
:1004B00000F1FF3C17D28B4215D902382944C91AE2
:1004C00040EA07473BE73746304609E70746E7E695
:1004D0001846FBE64145ABD2B8EB020A69EB0E02C7
:1004E00001381346A4E76046E9E7184695E76746F2
:1004F000D1E781467CE702382C4447E7ACF1020C97
:100500002B442FE7384608E73746E9E6704700BF37
:1005100001F0FF01102A2BDB10F0070F08D010F8B4
:10052000013B013A8B422DD010F0070F42B3F6D1B8
:10053000F0B441EA012141EA014122F007047FF0D1
:1005400000070023F0E80256083C85EA010586EA28
:10055000010685FA47F5A3FA87F586FA47F6A5FA64
:1005600087F68EB9EED1F0BC01F0FF0102F0070270
:1005700032B110F8013B013A83EA010313B1F8D11B
:100580000020704701387047002D06BF35460338FC
:10059000073815F0010F07D1013015F4807F02BF35
:1005A000013015F4C03F0130F0BC0138704700BF86
:1005B00010B504460E4B18784FF47A73B3FBF0F382
:1005C0000C4A1068B0FBF3F000F096F868B90F2CF5
:1005D00001D901200AE0002221464FF0FF3000F04F
:1005E00049F8034B5C60002000E0012010BD00BF13
:1005F000000000200800002008B50B4B1A6842F4E8
:1006000000721A601A6842F480621A601A6842F432
:1006100080721A60032000F01BF80020FFF7C8FF6B
:1006200001F004FF002008BD003C0240034A1168AD
:10063000034B1B780B441360704700BFC4010020BC
:1006400000000020014B1868704700BFC401002063
:10065000074AD36823F4E0631B041B0C000200F478
:10066000E060184340F0BF6040F40030D060704755
:1006700000ED00E030B4174BDB68C3F30223C3F195
:100680000704042C28BF04241D1D062D18D9033B84
:100690004FF0FF3505FA04F421EA0401994005FA08
:1006A00003F322EA0303194300280BDB0901C9B253
:1006B00000F1604000F5614080F8001330BC7047E5
:1006C0000023E5E700F00F000901C9B2024B1954FD
:1006D000F4E700BF00ED00E014ED00E0002807DBC8
:1006E00000F01F02400901239340024A42F82030E3
:1006F000704700BF00E100E00138B0F1807F0AD20E
:10070000064B5860064AF02182F8231000209860BA
:1007100007221A6070470120704700BF10E000E018
:1007200000ED00E090F83530DBB2022B03D08023DF
:10073000436501207047052380F83530026813684F
:1007400023F00103136000207047000000230F2BEB
:1007500000F2D180F0B482B039E0062200E000223D
:10076000B2403A430234644E46F82420634A146887
:10077000EA4302EA04064F6817F4803F01D045EAD5
:1007800004065E4C2660646802EA04064F6817F4AB
:10079000003F01D045EA0406584C6660A46802EAAE
:1007A00004064F6817F4801F01D045EA0406534C35
:1007B000A660E46822404E6816F4001F01D045EAA6
:1007C00004024E4CE26001330F2B00F291800122B3
:1007D0009A400C6804EA0205AA42F4D14C68022C43
:1007E00001D0122C10D1DE08083650F826C003F0D4
:1007F0000704A7000F24BC402CEA040C0C69BC4081
:1008000044EA0C0440F8264004685F000326BE401A
:10081000F64306EA040C4C6804F00304BC4044EAC6
:100820000C0404604C6804F1FF3CBCF1010F03D9D7
:10083000112C01D0122C10D1846806EA040CCC686B
:10084000BC4044EA0C048460446824EA02024C6818
:10085000C4F300149C4014434460C26816408A6884
:10086000BA403243C2604A6812F0805FABD00022C7
:100870000192234A546C44F480445464526C02F450
:1008800080420192019A9C08A61C1B4A52F82670CD
:1008900003F0030296000F22B24027EA0207194A2A
:1008A00090423FF45CAF02F58062904216D002F5B0
:1008B0008062904214D002F58062904212D002F51C
:1008C0008062904210D002F5806290420ED002F514
:1008D000806290423FF441AF072241E701223FE7A7
:1008E00002223DE703223BE7042239E7052237E7EE
:1008F00002B0F0BC7047704700380140003C014036
:10090000003802400000024012B9090481617047BA
:1009100081617047436931EA030301D08161704707
:10092000090481617047000008B5054B5B6903420B
:1009300000D108BD024B586101F036FCF9E700BF59
:10094000003C0140002800F09D8070B504464F4BEC
:100950001B6803F00F038B4209D2CBB24B4A1370D2
:10096000136803F00F038B4201D0012070BD236890
:1009700013F0020F17D013F0040F04D0444A936809
:1009800043F4E0539360236813F0080F04D0404A07
:10099000936843F4604393603D4A936823F0F00307
:1009A000A068034393600D46236813F0010F32D013
:1009B0006368012B21D09A1E012A25D9344A126876
:1009C00012F0020F60D032498A6822F0030213430A
:1009D0008B60FFF737FE06462D4B9B6803F00C0338
:1009E0006268B3EB820F16D0FFF72CFE801B41F23A
:1009F00088339842F0D90320B8E7254A126812F4E8
:100A0000003FE0D10120B1E7214A126812F0007FD7
:100A1000D9D10120AAE71D4B1B6803F00F03AB429D
:100A200009D9EAB2194B1A701B6803F00F03AB42E5
:100A300001D001209AE7236813F0040F06D0144A6E
:100A4000936823F4E053E1680B439360236813F049
:100A5000080F07D00E4A936823F46043216943EAE4
:100A6000C103936000F040F8094B9B68C3F3031384
:100A7000084AD35CD840084B18600020FFF798FD67
:100A8000002073E70120704701206FE7003C02401F
:100A900000380240B430000808000020014B1868FC
:100AA000704700BF0800002008B5FFF7F7FF044BB0
:100AB0009B68C3F38223034AD35CD84008BD00BFC0
:100AC00000380240C430000808B5FFF7E7FF044BC8
:100AD0009B68C3F34233034AD35CD84008BD00BFD0
:100AE00000380240C43000082DE9F04B5C4B9B6895
:100AF00003F00C03082B07D00C2B5BD0042B00F069
:100B0000AD805848BDE8F08B554B5A6802F03F0263
:100B10005B6813F4800F2AD0514B5B68C3F38813D2
:100B20001E4600275C010025E41A65EB0705A901B4
:100B300041EA9461A001001B61EB0501CB0043EA8F
:100B40005073C400A01943EB07014B0243EAD05392
:100B50004402204619460023FFF75AFB404B5B68CE
:100B6000C3F3014301335B00B0FBF3F0CAE73C4B36
:100B70005B68C3F388131E4600275C010025E41A56
:100B800065EB0705A90141EA9461A001001B61EB37
:100B90000501CB0043EA5073C400A01943EB0701E1
:100BA0008B0243EA90538402204619460023FFF744
:100BB0002FFBD3E72A4B5A6802F03F025B6813F41D
:100BC000800F28D0264B5B68C3F388131E4600278E
:100BD0005C010025E41A65EB0705A90141EA94616F
:100BE000A001001B61EB0501CB0043EA5073C40078
:100BF000A01943EB07014B0243EAD05344022046BD
:100C000019460023FFF704FB154B5B68C3F302731F
:100C1000B0FBF3F076E7124B5B68C3F388131E4614
:100C200000275C010025E41A65EB0705A90141EAEC
:100C30009461A001001B61EB0501CB0043EA5073F6
:100C4000C400A01943EB07018B0243EA90538402CE
:100C5000204619460023FFF7DBFAD5E7024851E7A3
:100C6000003802400024F40000127A0070B582B00F
:100C70000446036813F0010F41D0A64B9B6803F0B4
:100C80000C03042B32D0A34B9B6803F00C03082BFE
:100C900027D0A04B9B6803F00C030C2B59D0636842
:100CA000B3F5803F5BD0B3F5A02F5ED0994B1A68A7
:100CB00022F480321A601A6822F480221A60636873
:100CC000002B5CD0FFF7BEFC0546924B1B6813F46B
:100CD000003F14D1FFF7B6FC401B6428F5D9032070
:100CE0009DE18C4B5B6813F4800FD2D0894B1B685D
:100CF00013F4003F03D06368002B00F08D8123685C
:100D000013F0020F67D0834B9B6813F00C0F4AD08F
:100D1000804B9B6803F00C03082B3FD07D4B9B68F6
:100D200003F00C030C2B48D0E368002B74D07A4BF3
:100D300001221A60FFF786FC0546764B1B6813F00C
:100D4000020F60D1FFF77EFC401B0228F5D903207B
:100D500065E1704B5B6813F4800FA0D0C6E76D4A65
:100D6000136843F480331360A9E76A4B1A6842F4AE
:100D700080221A601A6842F480321A609FE7FFF7F7
:100D800061FC0546634B1B6813F4003FB7D0FFF7C7
:100D900059FC401B6428F5D9032040E15D4B5B689A
:100DA00013F4800FBAD15B4B1B6813F0020F0AD00B
:100DB000E368012B07D0012031E1564B5B6813F447
:100DC000800FB1D1EFE7534A136823F0F80321698C
:100DD00043EAC1031360236813F0080F40D063692E
:100DE00063B34E4B01221A60FFF72CFC0546494BBA
:100DF0005B6F13F0020F33D1FFF724FC401B022876
:100E0000F5D903200BE1434A136823F0F803216965
:100E100043EAC1031360DEE73F4B00221A60FFF78D
:100E200011FC05463B4B1B6813F0020FD3D0FFF7B4
:100E300009FC401B0228F5D90320F0E0374B0022C3
:100E40001A60FFF7FFFB0546324B5B6F13F0020F92
:100E500006D0FFF7F7FB401B0228F5D90320DEE0A0
:100E6000236813F0040F79D02A4B1B6C13F0805FBA
:100E700033D100230193274B1A6C42F080521A643D
:100E80001B6C03F080530193019B0125244B1B68CD
:100E900013F4807F23D0A368012B34D0052B41D0DD
:100EA0001C4B1A6F22F001021A671A6F22F004021B
:100EB0001A67A368002B3FD0FFF7C4FB0646154B0B
:100EC0001B6F13F0020F48D1FFF7BCFB801B41F2F0
:100ED00088339842F3D90320A1E00025D6E7104AD1
:100EE000136843F480731360FFF7ACFB06460C4BAA
:100EF0001B6813F4807FCED1FFF7A4FB801B022870
:100F0000F5D903208BE0034A136F43F00103136705
:100F1000CFE700BF0038024000004742800E474242
:100F200000700040404B1A6F42F004021A671A6FBB
:100F300042F001021A67BCE7FFF784FB06463A4B12
:100F40001B6F13F0020F08D0FFF77CFB801B41F2F0
:100F500088339842F3D9032061E0E5B9A369002BF7
:100F60005CD0314A926802F00C02082A59D0022B58
:100F700017D02E4B00221A60FFF764FB04462A4B61
:100F80001B6813F0007F45D0FFF75CFB001B0228B5
:100F9000F5D9032043E0244A136C23F080531364F3
:100FA000DCE7224B00221A60FFF74CFB05461E4B84
:100FB0001B6813F0007F06D0FFF744FB401B02289C
:100FC000F5D903202BE0E369226A1343626A43EAFE
:100FD0008213A26A5208013A43EA0243E26A43EAF0
:100FE0000263226B43EA02730F4A53600F4B0122E4
:100FF0001A60FFF727FB04460B4B1B6813F0007FBA
:1010000006D1FFF71FFB001B0228F5D9032006E0DD
:10101000002004E0002002E0012000E0002002B0F7
:1010200070BD0120FBE700BF00380240600047426E
:1010300030B4036A23F001030362056A42688469DD
:1010400024F073040B681C4325F002058B682B43C6
:10105000104DA84203D005F58065A84205D123F0C4
:101060000803CD682B4323F004030A4DA84203D0A4
:1010700005F58065A84205D122F440724D691543FB
:101080008A692A43426084614A684263036230BCD1
:10109000704700BF0000014030B4036A23F480733E
:1010A0000362036A4268C46924F073040D682C4328
:1010B00023F400738D6843EA0523124DA84203D040
:1010C00005F58065A84206D123F40063CD6843EAA4
:1010D000052323F480630B4DA84203D005F58065FA
:1010E000A84207D122F440524D6942EA05128D69A7
:1010F00042EA05124260C4614A68C263036230BCBE
:10110000704700BF0000014030B4036A23F48053ED
:101110000362036A4468C26922F4E6420D6842EA47
:10112000052223F400538D6843EA0533094DA84294
:1011300003D005F58065A84204D124F480444D69AC
:1011400044EA85144460C2614A680264036230BCA8
:10115000704700BF000001400268D36843F00103FC
:10116000D3600268936803F00703062B03D013686B
:1011700043F00103136000207047704770477047C9
:10118000704710B5044603681A6912F0020F11D0B7
:10119000DA6812F0020F0DD06FF002021A6101231B
:1011A000037703689B6913F0030F70D0FFF7E6FF26
:1011B0000023237723681A6912F0040F12D0DA682B
:1011C00012F0040F0ED06FF004021A61022323778D
:1011D00023689B6913F4407F5FD02046FFF7CEFF62
:1011E0000023237723681A6912F0080F12D0DA68F7
:1011F00012F0080F0ED06FF008021A610423237753
:101200002368DB6913F0030F4ED02046FFF7B6FFCB
:101210000023237723681A6912F0100F12D0DA68BE
:1012200012F0100F0ED06FF010021A61082323770E
:101230002368DB6913F4407F3DD02046FFF79EFF13
:101240000023237723681A6912F0010F03D0DA68AC
:1012500012F0010F36D123681A6912F0800F03D003
:10126000DA6812F0800F34D123681A6912F0400F47
:1012700003D0DA6812F0400F32D123681A6912F0F5
:10128000200F03D0DA6812F0200F30D110BDFFF725
:1012900074FF2046FFF773FF8AE72046FFF76DFFD4
:1012A0002046FFF76CFF9BE72046FFF766FF2046CE
:1012B000FFF765FFACE72046FFF75FFF2046FFF72B
:1012C0005EFFBDE76FF001021A61204600F0F6FFF5
:1012D000C1E76FF080021A61204600F011FAC3E7FF
:1012E0006FF040021A612046FFF74AFFC5E76FF032
:1012F00020021A61204600F002FAC7E70368304A6C
:10130000904212D0B0F1804F0FD0A2F57C429042B3
:101310000BD002F58062904207D002F580629042C5
:1013200003D002F57842904203D123F070034A685B
:101330001343234A90422AD0B0F1804F27D0A2F520
:101340007C42904223D002F5806290421FD002F589
:10135000806290421BD002F57842904217D002F58D
:101360007052904213D002F5806290420FD002F585
:10137000806290420BD0A2F59832904207D002F5DD
:101380008062904203D002F58062904203D123F440
:101390004073CA68134323F080034A691343036010
:1013A0008B68C3620B688362054B984203D003F5D8
:1013B0008063984201D10B69036301234361704745
:1013C00000000140A8B110B5044690F83D305BB173
:1013D000022384F83D30211D2068FFF78FFF012391
:1013E00084F83D30002010BD80F83C3001F0B0F8AA
:1013F000EEE701207047A8B110B5044690F83D30E3
:101400005BB1022384F83D30211D2068FFF776FF91
:10141000012384F83D30002010BD80F83C3001F0FD
:1014200025F8EEE701207047002849D0F8B50546B9
:101430000C4690F83D30002B3DD0022385F83D301E
:10144000294651F8042B936823F4804323F00703C3
:1014500093602868FFF752FF29688A688E690F6ACF
:101460002068104326F4407626F00306A268A3699C
:1014700042EA0323334323F47C4323F0FC03E6686E
:10148000E26946EA02261E43226A1303226943EAFE
:101490000213334327F0AA076268646942EA041220
:1014A0003A43886029688B612B681A62012385F8AA
:1014B0003D300020F8BD80F83C3000F0EDFFBCE787
:1014C0000120704730B4036A23F010030362036AFB
:1014D0004468826922F4E6420D6842EA052223F05C
:1014E00020038D6843EA0513114DA84203D005F58A
:1014F0008065A84206D123F08003CD6843EA051336
:1015000023F040030A4DA84203D005F58065A842A8
:1015100007D124F440644D6944EA85048D6944EAA6
:101520008504446082614A688263036230BC70470C
:101530000000014038B590F83C30012B66D00D46D4
:101540000446012380F83C30022380F83D300C2A09
:101550001AD8DFE802F007191919201919193419D6
:10156000191947000068FFF763FD2268936943F08B
:10157000080393612268936923F00403936122684E
:10158000936929690B439361012384F83D3000205E
:1015900084F83C0038BD0068FFF794FF2268936927
:1015A00043F4006393612268936923F48063936139
:1015B00022689369296943EA01239361E4E700689B
:1015C000FFF76AFD2268D36943F00803D3612268FC
:1015D000D36923F00403D3612268D36929690B43DB
:1015E000D361D1E70068FFF78FFD2268D36943F428
:1015F0000063D3612268D36923F48063D3612268D6
:10160000D369296943EA0123D361BDE70220C1E719
:1016100010B401F01F01012303FA01F4036A23EA65
:1016200004030362036A8A40134303625DF8044BB8
:101630007047000010B5044601220068FFF7E8FF7C
:1016400023680B4A934203D002F58062934203D190
:101650005A6C42F400425A642268936803F007030C
:10166000062B03D0136843F001031360002010BD64
:101670000000014010B5044661B1042916D00122D2
:1016800000210068FFF7C4FF012204212068FFF752
:10169000BFFF04E0012200210068FFF7B9FF2268C4
:1016A000136843F001031360002010BD01220421E0
:1016B0000068FFF7ADFFF2E790F83C30012B1CD03B
:1016C00070B4012680F83C60022380F83D30026847
:1016D0005568936825F070050C682C4323F080054D
:1016E0004B682B4354600268936080F83D60002390
:1016F00080F83C30184670BC704702207047704735
:1017000070470268D36823F49073D360026853690A
:1017100023F001035361202380F83A30704790F89A
:101720003930DBB2212B2AD18368B3F5805F16D024
:10173000036A5A1C02621A7803685A60C38C013B20
:101740009BB2C384EBB90268D36823F08003D360F3
:101750000268D36843F04003D36000207047036AF7
:101760001B880268C3F30803536003691BB9036A4B
:1017700002330362E2E7036A01330362DEE7022019
:1017800070470020704700002DE9F84304460268C6
:10179000136923F44053C1680B43136183680269E2
:1017A000134342691343C2691A430168CB6823F4A7
:1017B000164323F00C031343CB600268536923F4F0
:1017C000407381690B435361C369B3F5004F60D027
:1017D0000368B84A934200F0148102F58062934294
:1017E00000F00F81FFF760F900EB800000EB800054
:1017F0006568AD00B0FBF5F5AF4FA7FB05356D098A
:101800002E01FFF751F900EB800000EB80006568C6
:10181000AD00B0FBF5F9FFF747F900EB800000EBF6
:1018200080006568AD00B0FBF5F5A7FB05356D09D7
:101830004FF0640808FB15952D013235A7FB0535DF
:101840006D0905F0F0053544FFF72EF900EB800037
:1018500000EB80006668B600B0FBF6F6FFF724F9EF
:1018600000EB800000EB800063689B00B0FBF3F0AE
:10187000A7FB0030400908FB10684FEA081808F180
:101880003208A7FB0837C7F3431723682F449F602C
:101890000DE10368874A93425BD002F58062934270
:1018A00057D0FFF701F900EB800000EB800065687E
:1018B0006D00B0FBF5F5804FA7FB05356D092E01D6
:1018C000FFF7F2F800EB800000EB800065686D0028
:1018D000B0FBF5F9FFF7E8F800EB800000EB8000C3
:1018E00065686D00B0FBF5F5A7FB05356D094FF098
:1018F000640808FB1595ED003235A7FB05356D0929
:101900006D0005F4F8753544FFF7CEF800EB800064
:1019100000EB800066687600B0FBF6F6FFF7C4F8CF
:1019200000EB800000EB800063685B00B0FBF3F32A
:10193000A7FB03235B0908FB13684FEAC80808F1FB
:101940003208A7FB0837C7F3421723682F449F606C
:10195000ADE0FFF7B9F800EB800000EB80006568B0
:101960006D00B0FBF5F5544FA7FB05356D092E0151
:10197000FFF7AAF800EB800000EB800065686D00BF
:10198000B0FBF5F9FFF7A0F800EB800000EB80005A
:1019900065686D00B0FBF5F5A7FB05356D094FF0E7
:1019A000640808FB1595ED003235A7FB05356D0978
:1019B0006D0005F4F8753544FFF786F800EB8000FC
:1019C00000EB800066687600B0FBF6F6FFF77CF867
:1019D00000EB800000EB800063685B00B0FBF3F37A
:1019E000A7FB03235B0908FB13684FEAC80808F14B
:1019F0003208A7FB0837C7F3421723682F449F60BC
:101A000055E0FFF761F800EB800000EB80006568AF
:101A1000AD00B0FBF5F5284FA7FB05356D092E018C
:101A2000FFF752F800EB800000EB80006568AD0026
:101A3000B0FBF5F9FFF748F800EB800000EB800001
:101A40006568AD00B0FBF5F5A7FB05356D094FF0F6
:101A5000640808FB15952D013235A7FB05356D0986
:101A600005F0F0053544FFF72FF800EB800000EBA0
:101A700080006668B600B0FBF6F6FFF725F800EBCD
:101A8000800000EB800063689B00B0FBF3F0A7FBD5
:101A90000030400908FB10684FEA081808F13208C6
:101AA000A7FB0837C7F3431723682F449F60BDE89F
:101AB000F88300BF001001401F85EB512DE9F04174
:101AC00005460F4616469846069C2B681B6837EA63
:101AD00003030CBF01230023B3421DD1B4F1FF3F28
:101AE000F3D02CB1FEF7AEFDA0EB0800A042ECD97C
:101AF0002A68D36823F4D073D3602A68536923F02B
:101B000001035361202385F8393085F83A300023EA
:101B100085F83830032000E00020BDE8F08158B39C
:101B200010B5044690F839300BB3242384F83930CB
:101B30002268D36823F40053D3602046FFF724FEC5
:101B40002268136923F4904313612268536923F0D8
:101B50002A0353612268D36843F40053D360002002
:101B6000E063202384F8393084F83A3010BD80F8DF
:101B7000383000F04DFDD8E7012070472DE9F041E5
:101B800082B01E4690F83930DBB2202B55D1044686
:101B90000D469046002955D0002A55D090F838308F
:101BA000012B53D0012380F838300023C363212355
:101BB00080F83930FEF746FD0746A4F82480A4F8E3
:101BC000268010E000963B46002280212046FFF749
:101BD00075FF00283CD12B882268C3F308035360AB
:101BE0002369C3B90235E38C9BB2B3B1E38C013BEB
:101BF0009BB2E384A368B3F5805FE3D000963B46D5
:101C0000002280212046FFF759FF18BB2A7823685D
:101C10005A600135E7E70135E5E700963B460022CB
:101C200040212046FFF74AFF0346A8B9202284F846
:101C30003920002284F8382000E00223184602B040
:101C4000BDE8F0810123F9E70123F7E70223F5E777
:101C50000323F3E70323F1E70323EFE790F83A3098
:101C6000DBB2202B20D109B312B390F83830012B0E
:101C700020D081628285C2850023C363222280F83E
:101C80003A2080F838300168CA6842F48072CA602D
:101C900001684A6942F001024A610168CA6842F07B
:101CA0002002CA6018467047022070470120704722
:101CB0000120704702207047704708B50168CB6863
:101CC00023F04003CB60202380F83930FFF7F4FF86
:101CD000002008BD08B590F83A30DBB2222B45D180
:101CE0008368B3F5805F0ED0036903BB03685A684D
:101CF000836A591C81621A70C38D013B9BB2C385F4
:101D0000F3B1002033E0826A036943B903685B687A
:101D1000C3F308031380836A02338362ECE703682A
:101D20005B68DBB21380836A01338362E4E7036894
:101D30005B68826A511C816203F07F031370DBE7EA
:101D40000268D36823F02003D3600268D36823F4C9
:101D50008073D3600268536923F001035361202329
:101D600080F83A3000F048FA002000E0022008BD78
:101D70007047000010B5044602681368D1685269C4
:101D800013F00F0005D113F0200F02D011F0200F37
:101D900053D1002867D012F0010202D111F4907FD4
:101DA00061D013F0010F06D011F4807F03D0E06BF7
:101DB00040F00100E06313F0040F04D01AB1E06BAF
:101DC00040F00200E06313F0020F04D01AB1E06BA0
:101DD00040F00400E06313F0080F04D01AB1E26B86
:101DE00042F00802E263E26B002A48D013F0200FB1
:101DF00002D011F0200F24D123685B6903F0400367
:101E0000E26B12F0080F00D13BB32046FFF779FCDC
:101E100023685A6912F0400F1BD05A6922F0400221
:101E20005A61636B8BB11A4A1A65606BFEF77AFCD4
:101E300028B3606B036D984721E02046FFF74AFF07
:101E40001DE02046FFF746FFD6E72046FFF790FF4C
:101E500015E02046FFF78CFF11E02046FFF788FFD2
:101E60000023E3630BE013F0800F02D011F0800F2A
:101E700006D113F0400F02D011F0400F04D110BD75
:101E80002046FFF74CFCFAE72046FFF716FFF6E77F
:101E9000951E000808B5806B0023C385C384FFF737
:101EA00067FF08BD30B58BB00024059406940794F5
:101EB000089409940194264B1A6B42F004021A63A9
:101EC0001A6B02F004020192019A02941A6B42F01A
:101ED00080021A631A6B02F080020292029A039443
:101EE0001A6B42F001021A631A6B02F001020392AC
:101EF000039A04941A6B42F002021A631B6B03F0FC
:101F000002030493049B134D224620212846FEF72A
:101F1000FBFC4FF4005305930F4B0693079405A960
:101F20000E48FEF713FC2023059301230693079424
:101F3000089405A92846FEF709FC224621462820D8
:101F4000FEF798FB2820FEF7C9FB0BB030BD00BFA1
:101F5000003802400000024000002110000802404A
:101F600030B58BB000240894099401940294039432
:101F70000494059406940794194D4FF080432B6008
:101F80006C60AC6040F6FF73EB602C61AC6128467E
:101F9000FFF731FA0894099408A92846FFF78CFB4B
:101FA00060230193029403940594224601A92846D4
:101FB000FFF7C0FA04220DEB02012846FFF7BAFA38
:101FC000082201A92846FFF7B5FA0C2201A92846E4
:101FD000FFF7B0FA284600F0DBFA0BB030BD00BFC7
:101FE0008802002030B58DB0002404940694089433
:101FF0000A94019402940E4D0E4B2B606C60AC6001
:102000004FF6FF73EB602C61AC61012303930593E2
:102010000822079209930B9203A92846FFF704FAB6
:102020000194029401A92846FFF746FB0DB030BD8C
:10203000080200200004004030B58DB00024049454
:1020400006940A94019402940F4D104B2B606C601F
:10205000AC604FF6FF73EB602C61AC61012303931E
:102060000593082207920221089109930B9203A974
:102070002846FFF7D9F90194029401A92846FFF7F1
:102080001BFB0DB030BD00BFC801002000080040A0
:1020900008B50848084B03604FF4E1334360002360
:1020A0008360C36003610C2242618361C361FFF7F7
:1020B00036FD08BDC80200200044004008B50848AD
:1020C000084B03604FF4E133436000238360C36037
:1020D00003610C2242618361C361FFF720FD08BDEB
:1020E000480200200010014008B50848084B036072
:1020F00042F2D00343600023836042F20F72C26059
:1021000003618361FFF75EF908BD00BF080300208B
:102110000020004030B595B03422002107A800F01F
:102120009DFB002402940394049405940694009467
:102130001B4B1A6C42F080521A641B6C03F08053E4
:102140000093009B0194174A136823F4404343F41F
:1021500080431360136803F440430193019B0225FD
:10216000079501230A9310230B930D950E940F935B
:102170004FF4A8731093042311931295139507A895
:10218000FEF774FD0F230293039504944FF48053DC
:1021900005930694294602A8FEF7D4FB15B030BD7E
:1021A0000038024000700040B0F5005F00D070477A
:1021B00008B50F4B01221A705B787BB90C4B9A68FB
:1021C0005A601A69DA604FF4FA629A601A61012261
:1021D0005A7020210748FEF79DFB08BD012BF8D15E
:1021E000034B5A689A60DA681A6100225A70F0E765
:1021F0008C0000200000024070B5044620212D48CC
:10220000FEF788FB2C4B01221A70597D30394FF4B0
:102210007A76987D3038642505FB00F006FB0101D5
:10222000D87D303800EB800000FA02F211441A7EAB
:10223000303A1144C3F89410DA7E303A187F3038BF
:1022400005FB00F506FB0252587F303800EB80009A
:1022500045002A44987F30380244C3F898201B7DFB
:102260002B2B0FD02D2B13D0134B9B7E2B2B15D04C
:102270002D2B19D01049B1F8A42014312046FFF7B6
:10228000EDFC70BD0C4B99600021C3F89C10EBE78E
:10229000094B00209860C3F89C10E5E7064BC3F893
:1022A000A02000221A61E5E7034B0021C3F8A0102B
:1022B0001A61DFE7000002408C0000200F4B8342D0
:1022C00000D0704700B583B00D4B1B685B6A0D4AA8
:1022D0001268526A00920C4A80210C4800F0C6FA3B
:1022E000B0F1FF3F06D04FF0FF3382B207490848F4
:1022F000FFF744FC03B05DF804FB00BF08030020B7
:1023000008020020C8010020CC3000083401002061
:10231000C802002030B589B004460D46B2F5805F92
:1023200001D340F6FF7260230193002304930593C9
:1023300002922A4601A92046FFF7FCF829462046CA
:10234000FFF778F909B030BD00B583B0FEF754F956
:102350002E4C0023A360C4F8A030C4F89C30236145
:10236000012525706370FFF7D5FEFFF79BFDFFF792
:10237000F7FDFFF737FEFFF75FFEFFF789FEFFF778
:10238000B3FEFFF79BFE04F11406D4F898300093D7
:10239000D4F894301E4A8021304600F067FAC4F821
:1023A000A40082B231461B48FFF758FC2A46202180
:1023B0001948FEF7A9FA3C211848FFF75BF93C21C0
:1023C0001748FFF757F91748FEF7C6FE0F4B1B7863
:1023D000012BFBD10D4C144DD4F8A0200021284630
:1023E000FFF798FF226904212846FFF793FFA268B0
:1023F00008212846FFF78EFFD4F89C200C212846A0
:10240000FFF788FF00232370E0E700BF8C00002067
:10241000E8300008480200200000024008020020C6
:10242000C8010020080300208802002000B583B006
:10243000002100910C4B5A6C42F480425A645A6C51
:1024400002F480420092009A01911A6C42F080528C
:102450001A641B6C03F080530193019B0720FEF765
:10246000F7F803B05DF804FB003802400368B3F1ED
:10247000804F00D0704782B000230193054B1A6C47
:1024800042F001021A641B6C03F001030193019BEB
:1024900002B070470038024000B58BB000230593AE
:1024A00006930793089309930368244A934205D03F
:1024B000234A934222D00BB05DF804FB0021019126
:1024C000204B1A6C42F002021A641A6C02F00202EB
:1024D0000192019A02911A6B42F001021A631B6B7E
:1024E00003F001030293029BC0230593022306938A
:1024F000099305A91448FEF729F9DCE700210391A7
:10250000104B1A6C42F004021A641A6C02F00402B6
:102510000392039A04911A6B42F002021A631B6B36
:1025200003F002030493049BC02305930223069344
:10253000099305A90548FEF709F9BCE70004004026
:102540000008004000380240000002400004024041
:1025500002680E4B9A4200D0704700B583B000214C
:10256000019103F506331A6C42F480721A641B6CF5
:1025700003F480730193019B0A462D20FEF77AF83D
:102580002D20FEF7ABF803B05DF804FB00200040FF
:1025900070B588B0002303930493059306930793C3
:1025A0000368B3F1804F01D008B070BD00240194DE
:1025B00003F50E331A6B42F001021A631A6B02F034
:1025C00001020192019A02941A6B42F002021A630C
:1025D0001B6B03F002030293029B03230393022667
:1025E00004960125079503A90748FEF7AFF840F2C6
:1025F00004430393049605940694079503A903489E
:10260000FEF7A4F8D0E700BF00000240000402403B
:1026100010B58AB000230593069307930893099396
:1026200003682D4A934204D02C4A93422FD00AB01B
:1026300010BD002401942A4B5A6C42F010025A64D7
:102640005A6C02F010020192019A02941A6B42F045
:1026500001021A631B6B03F001030293029B4FF408
:10266000C063059302230693012307930323089372
:102670000723099305A91B48FEF768F8224621465F
:102680002520FDF7F7FF2520FEF728F8CFE70021EA
:102690000391134B1A6C42F400321A641A6C02F460
:1026A00000320392039A04911A6B42F001021A63FA
:1026B0001B6B03F001030493049B0C23059302237B
:1026C000069301230793032308930723099305A97E
:1026D0000448FEF73BF8AAE7001001400044004020
:1026E00000380240000002407047FEE7FEE7FEE7C8
:1026F000FEE770477047704708B5FDF797FF08BDC4
:1027000008B50248FFF736FB08BD00BF48020020AD
:1027100008B54FF40050FEF707F908BD08B50248A8
:10272000FEF72FFD08BD00BF0803002008B50346D3
:102730000B4A126842B10A4A106803446A4693423F
:1027400006D8074A136008BD054A06491160F2E73A
:1027500000F05AF80C2303604FF0FF30F3E700BF9E
:10276000B4010020500300200F49D1F8883043F411
:102770007003C1F888300D4B1A6842F001021A60EC
:10278000002098601A6822F0847222F480321A6065
:10279000074A5A601A6822F480221A60D8604FF003
:1027A00000638B60704700BF00ED00E0003802401E
:1027B00010300024DFF834D0002103E00C4B5B58CC
:1027C000435004310B480C4B42189A42F6D30B4A43
:1027D00002E0002342F8043B094B9A42F9D3FFF789
:1027E000C3FF00F017F8FFF7AFFD704700000220AD
:1027F0003831000800000020700000207000002028
:102800004C030020FEE70000014B1868704700BF32
:102810000C00002070B50D4E0D4CA41BA41000251B
:10282000A54209D10B4E0C4C00F038FCA41BA4109F
:102830000025A54205D170BD56F8253098470135D1
:10284000EEE756F8253098470135F2E730310008B9
:1028500030310008303100083431000802440346AA
:10286000934200D1704703F8011BF9E70CB430B56F
:10287000174B0C1E9DB01D6808DA8B232B604FF0A0
:10288000FF301DB0BDE8304002B070474FF4027316
:10289000ADF8143014BF04F1FF33234604930793BB
:1028A0004FF6FF7302900690ADF81630209A21ABD8
:1028B00002A92846019300F067F8431CBCBF8B2394
:1028C0002B60002CDDD0029B00221A70D9E700BFDC
:1028D0000C0000202DE9F0478E689E4282460C468F
:1028E0009046994637D88A8912F4906F31D025687E
:1028F00009696F1A6569022305EB450595FBF3F538
:1029000009F101033B449D4238BF1D46530530D5B4
:10291000294600F029FB064650B90C23CAF80030BE
:10292000A38943F04003A3814FF0FF30BDE8F08757
:102930003A46216900F0A6FAA38923F4906343F094
:102940008003A381266165613E44ED1B2660A5607E
:102950004E464E4500D94E4632464146206800F06C
:102960009CFAA3689B1BA36023681E44266000207A
:10297000DCE72A4600F052FB06460028E2D1216936
:10298000504600F0A3FAC8E72DE9F04F9DB080460D
:1029900003938B891D060C4616460FD50B696BB940
:1029A000402100F0E1FA2060206128B90C23C8F82A
:1029B00000304FF0FF30C7E04023636100230993EC
:1029C00020238DF8293030238DF82A304FF0010B69
:1029D00037463D4615F8013B0BB1252B3ED1B7EBF1
:1029E000060A0BD05346324621464046FFF772FF97
:1029F000013000F0A480099B534409933B78002BDD
:102A000000F09D8000234FF0FF32CDE905230493B1
:102A100007938DF853301A932F46052217F8011BA0
:102A20004F48FDF775FD049BD0B9D90644BF20225D
:102A30008DF853201A0744BF2B228DF853202A7893
:102A40002A2A15D0079A2F4600200A25394611F860
:102A5000013B303B092B4DD9B8B10FE02F46B8E709
:102A60003F4A801A0BFA00F0184304903D46D3E722
:102A7000039A111D12680391002A01DB079204E0FA
:102A8000524243F00203079204933B782E2B0CD161
:102A90007B782A2B33D1039B1A1D1B680392002BD2
:102AA000B8BF4FF0FF33023705932E4D397803221C
:102AB0002846FDF72DFD38B14023401B03FA00F0F6
:102AC000049B034301370493397827488DF8281075
:102AD00006227E1CFDF71CFD002838D0234B13BBBB
:102AE000039B073323F0070308330393099B4B44ED
:102AF00009936DE705FB023201200F46A6E700238C
:102B00000137059319460A25384610F8012B303A4B
:102B1000092A03D9002BC8D00591C6E705FB01217E
:102B200001230746F0E703AB00932246104B04A9AC
:102B30004046AFF30080B0F1FF3F8146D6D1A38974
:102B40005B063FF536AF09981DB0BDE8F08F03ABCB
:102B500000932246064B04A9404600F081F8EAE7BC
:102B6000F4300008FA300008FE30000800000000D1
:102B7000D52800082DE9F04791461F468A680B6961
:102B8000DDF820809342B8BF1346C9F8003091F8B1
:102B9000432006460C4612B10133C9F800302368C1
:102BA000990642BFD9F800300233C9F800302568D1
:102BB00015F0060507D104F1190AE368D9F80020D9
:102BC0009B1AAB4228DC94F843302268003318BFCC
:102BD000012392062DD404F1430239463046C04702
:102BE000013020D02368E568D9F8002003F00603FF
:102BF000042B08BFAD1AA36822690CBF25EAE5754E
:102C000000259342C4BF9B1AED184FF000091A34F7
:102C10004D451AD1002008E001235246394630467E
:102C2000C047013003D14FF0FF30BDE8F0870135D8
:102C3000C3E7E1185A1C302081F84300224494F87D
:102C4000451082F843100233C5E701232246394676
:102C50003046C0470130E6D009F10109D8E700004D
:102C60002DE9F04301F1430C0C46097E85B06E2935
:102C70001746064698460C9A00F0B38022D863297E
:102C800036D00AD8002900F0B980582900F0838096
:102C900004F1420584F8421032E0642901D0692928
:102CA000F6D120681368050603F104012AD51B68D4
:102CB0001160002B03DA2D225B4284F843206F4819
:102CC0000A2239E0732900F09D8008D86F2920D0AE
:102CD0007029DDD1236843F02003236003E07529C8
:102CE00017D07829D4D1782384F84530644855E04A
:102CF0001368191D1B68116004F1420584F8423005
:102D000001238CE01B68116010F0400F18BF1BB24C
:102D1000CFE713682568181D1060280601D51B68C9
:102D200002E06806FBD51B8854486F2914BF0A22AD
:102D30000822002184F843106568A560002DC0F2C8
:102D40009580216821F004012160002B3DD1002DE8
:102D500040F08E806546082A0BD12368DB0708D532
:102D6000236962689A42DEBF302305F8013C05F111
:102D7000FF35ACEB05032361CDF800803B4603AA89
:102D800021463046FFF7F6FE01304DD14FF0FF30BF
:102D900005B0BDE8F083394884F845101368216810
:102DA0001D1D1B6815600A060BD5CA0744BF41F0FC
:102DB000200121601BB9226822F02002226010222B
:102DC000B7E74D0648BF9BB2EFE76546B3FBF2F1AC
:102DD00002FB1133C35C05F8013D0B460029F5D118
:102DE000B9E7136825686169181D106028061B681B
:102DF00001D5196002E06A06FBD519800023236122
:102E00006546B9E71368191D11601D6862680021E5
:102E10002846FDF77DFB08B1401B606063682361B5
:102E2000002384F84330A7E723692A463946304611
:102E3000C0470130AAD023689B0713D4E068039BE6
:102E40009842B8BF1846A3E701234A4639463046A0
:102E5000C04701309AD00135E368039A9B1AAB4210
:102E6000F2DCEBE7002504F11909F5E7002BACD102
:102E7000037884F8423004F142056CE7053100081C
:102E80001631000810B5431E0A44914200D110BD0E
:102E900011F8014B03F8014FF7E7884210B501EB39
:102EA000020307D8421E99420AD011F8014B02F8DA
:102EB000014FF8E78342F5D98118D21AD34200D1E5
:102EC00010BD13F8014D01F8014DF7E738B505467F
:102ED000002945D051F8043C0C1F002BB8BFE41862
:102EE00000F0D2F81F4A1368104633B963601460CB
:102EF0002846BDE8384000F0C8B8A3420CD9216884
:102F00006218934204BF1A685B68636004BF52187A
:102F100022600460ECE713465A680AB1A242FAD96B
:102F200019685818A0420BD12068014458188242F1
:102F30001960DDD1106852685A6001441960D7E702
:102F400002D90C232B60D3E7206821188A4204BFE2
:102F500011685268626004BF091821605C60C7E7AD
:102F600038BD00BFBC01002070B5CD1C25F00305A5
:102F700008350C2D38BF0C25002D064601DBA94273
:102F800003D90C233360002070BD00F07DF8214A86
:102F90001468214691B9204C23681BB9304600F0D3
:102FA00063F820602946304600F05EF8431C24D1C7
:102FB0000C233360304600F068F8E4E70B685B1BD5
:102FC00018D40B2B0FD90B60CD50CC18304600F025
:102FD0005CF804F10B00231D20F00700C31AD3D0C6
:102FE0005A42E250D0E78C424B6816BF63601360D0
:102FF0000C46EBE70C464968CCE7C41C24F00304FC
:10300000A04205D0211A304600F02EF80130CFD072
:103010002560DBE7BC010020C0010020F8B50746B1
:1030200014460E4621B91146BDE8F840FFF79CBF93
:1030300022B9FFF74BFF25462846F8BD00F026F8D9
:10304000A0420FD221463846FFF78EFF05460028E2
:10305000F2D031462246FFF715FF31463846FFF7DA
:1030600035FFE9E73546E7E738B5064C0023054666
:1030700008462360FFF75AFB431C02D1236803B1C3
:103080002B6038BD480300207047704751F8043C5E
:10309000181F002BBCBF0B58C0187047F8B500BFF5
:1030A000F8BC08BC9E467047F8B500BFF8BC08BC29
:0430B0009E46704781
:1030B40000000000000000000102030406070809E4
:1030C4000000000001020304454E43303A20253538
:1030D4006C642C20454E43313A2025356C640D0A2E
:1030E4000000000025356C642C25356C640D0A0045
:1030F400232D302B2000686C4C00656667454647DD
:10310400003031323334353637383941424344455F
:1031140046003031323334353637383961626364CE
:0431240065660000DC
:0831280018D1FF7F0100000037
:04313000F50100089D
:04313400D1010008BD
:1031380001000000100000000024F400100000202E
:103148000000000000000000000000000000000077
:103158000000000000000000000000000000000067
:103168000000000000000000000000000000000057
:103178000000000000000000000000000000000047
:103188000000000000000000000000000000000037
:103198000000000000000000000000000000000027
:04000005080027B513
:00000001FF
